:082B5E007F087EC5DEFEDFFCEE
:012B6600224C
:07000300EF25E014FFDFFE12
:01000A0022D3
:102A9000AD07AC06ED1DAE0470011C4E6005122B97
:032AA0005E80F164
:012AA3002210
:102AE000D286D2877F05120003C2867F05120003BB
:032AF000C2872278
:102B4E00C286D2877F05120003D2867F050200035C
:102B1900A2009286D2877F05120003C2877F050231
:022B29000003A7
:102B3D00D2877F05120003A286C2877F051200038C
:012B4D002265
:0529A5009001FEEFF0BF
:1029AA00E4A3F09001FEE025E0F09286D2877F054D
:1029BA00120003C2877F051200039001FFE004F0B2
:0929CA00E0C3940840DD022B3D3E
:10283200E49001FFF0D2869001FEF09001FFE025C6
:10284200E0F0D2877F051200039001FFE0FFA2862D
:10285200E433FEEF4EF0C2877F051200039001FEC3
:0E286200E004F0E0C3940840D29001FFE0FFD4
:012870002245
:1029F9009001FAEFF0A3EDF0122AE07FD01229A599
:102A09009001FAE0FF1229A59001FBE0FF1229A528
:032A1900022B4E3F
:0528A9009001FCEFF0BE
:1028AE00122AE07FD01229A59001FCE0FF1229A583
:1028BE00122AE07FD11229A51228329001FDEFF0E5
:0D28CE00D200122B19122B4E9001FDE0FFDD
:0128DB0022DA
:102A1C00E4FD7F6B1229F97D077F191229F97D06D8
:102A2C007F1A1229F97D187F1B1229F97D017F1C51
:032A3C000229F973
:0529D3009001FAEFF095
:1029D8001228A99001FBEFF09001FAE004FF1228F9
:1029E800A9AD079001FBE0FE7C00E42DFFEC3EFE64
:0129F80022BC
:1019E900410002014100D301C11342006D000042D0
:1019F90000D400004200D60000C1154200D8000002
:101A0900420000000042000300004400690001C2D6
:011A190000CC
:10257000759850900069E0F8A3E0F9A3E0FAA3E0B1
:10258000FB7F807E847D1E7C00120835EFF404F50D
:10259000D7900069E0F8A3E0F9A3E0FAA3E0FB7F9D
:1025A000807E847D1E7C00120835C3E49FFFE49E7C
:1025B000FE74019DFDE49CFC78081208E68FD67538
:0A25C0008E14438E01D2ACD2AF227C
:10262300759A10900069E0F8A3E0F9A3E0FAA3E03B
:10263300FB7F807E847D1E7C00120835EFF404F559
:10264300D7900069E0F8A3E0F9A3E0FAA3E0FB7FE9
:10265300807E847D1E7C00120835C3E49FFFE49EC8
:10266300FE74019DFDE49CFC78081208E68FD643B6
:052673008E14D2AF221D
:082B67002014FDD2148F992205
:082B6F002016FDD2168F9B22F7
:10002600AE07900002E0B40103122B67900002E0D5
:0B003600B40205AF06122B6FAF0622CC
:101F79009000D3E06401704890006DE07002A3E026
:101F890060F6C2AC9000D4E0FEA3E0FF2405F58220
:101F990074003EF583E0FBEF2401FFE43EFE7C0084
:101FA9007D6412073F9000D4ECF0A3EDF090006E31
:101FB900E024FFF090006DE034FFF0D2ACAF0322D3
:101FC9009000D8E07002A3E060F653AFFE900000E5
:101FD900E0FEA3E0FF246FF58274003EF583E0FB89
:101FE900EF2401FFE43EFE7C007D6412073F900070
:101FF90000ECF0A3EDF09000D9E024FFF09000D8B8
:09200900E034FFF043AF01AF0326
:0120120022AB
:1028DC00900238EBF0A3EAF0A3E9F0900238E0FBA9
:1028EC00A3E0FAA3E0F91206D56017900238A3E42E
:1028FC0075F001120775A9F0FA1206D5FF122B67B5
:03290C0080D9224D
:10290F0090023BEBF0A3EAF0A3E9F090023BE0FB6F
:10291F00A3E0FAA3E0F91206D5601790023BA3E4F7
:10292F0075F001120775A9F0FA1206D5FF122B6F79
:03293F0080D9221A
:03001E0025730047
:101A1A004C00E60000000000000000000000004C3E
:0E1A2A0000DA000000000000000000000000D4
:102AA400ED60101206D5B42C011D740129F9E43A25
:032AB400FA80EDB8
:012AB70022FC
:08275F00900232EFF0A3EDF04F
:10276700A312091F00000001900233E0FF14F0EFED
:102777006020A3E0F8A3E0F9A3E0FAA3E0FB90024E
:1027870032E0FFE4FCFDFE1207AA9002341209139F
:1027970080D6900234E0FCA3E0FDA3E0FEA3E0FFB7
:0127A700220F
:1020A700E4FF1206D5FE74E62FF582E43400F583CB
:1020B700EEF0740129F9E43AFA0F1206D5B42CE2CE
:1020C700EFD39405405D74E62FF582E43400F58381
:1020D700E4F0FF74E62FF582E43400F583E0642E24
:1020E700703E74E52FF582E43400F583E0FE74E674
:1020F7002FF582E43400F583EEF074E42FF582E4E3
:102107003400F583E0FE74E52FF582E43400F583AF
:10211700EEF074E42FF582E43400F583742EF02298
:0C2127000F80B09000E67431F0E4A3F0EB
:012133002289
:10213400E4FF1206D5FE74DA2FF582E43400F58349
:10214400EEF0740129F9E43AFA0F1206D5B42CE240
:10215400EFD39405405D74DA2FF582E43400F583FF
:10216400E4F0FF74DA2FF582E43400F583E0642EA2
:10217400703E74D92FF582E43400F583E0FE74DAFE
:102184002FF582E43400F583EEF074D82FF582E461
:102194003400F583E0FE74D92FF582E43400F5832E
:1021A400EEF074D82FF582E43400F583742EF02217
:0C21B4000F80B09000DA7431F0E4A3F06A
:0121C00022FC
:1024A500E4F99001FAC9F0A3F0A3E9F07F96900052
:1024B500F2E4F0A3DFFC7F96D2159002007401F0E0
:1024C500A37400F0A374F2F07BFF7A00791E121357
:1024D500609000F5E0B452E2C2157B017A0079F212
:1024E5007D03122AA49001FAEBF0A3EAF0A3E9F028
:1024F5001220A77A0079F27D05122AA49001FAEB41
:0A250500F0A3EAF0A3E9F00221348C
:100EA60041542B43444E534F5249503D310D0A0095
:100EB60041542B434950484541443D310D0A0041B8
:100EC600542B43495053544152543D2254435022CB
:100ED6002C226170692E7965656C696E6B2E6E6564
:100EE60074222C223830220D0A0041542B434950DB
:100EF60053454E440D0A00504F5354202F76312E41
:100F0600302F6465766963652F31383036352F7337
:100F1600656E736F722F33353735352F64617461A3
:100F2600706F696E747320485454502F312E310DF2
:100F36000A552D4170694B65793A3562323664350A
:100F460035336430386330636565366565626339A9
:100F5600623062636165313539310D0A486F7374E9
:100F66003A206170692E7965656C696E6B2E6E65C7
:100F7600740D0A436F6E74656E742D4C656E6774DE
:100F8600683A000D0A436F6E6E656374696F6E3A58
:100F960020636C6F73650D0A0D0A7B2276616C7592
:100FA60065223A207B226C6174223A000D0A415474
:100FB6002B434950434C4F53450D0A0041542B4394
:100FC6004950534855540D0A0041542B4349505338
:100FD600544152543D22544350222C227777772E87
:100FE6006C6577656935302E636F6D222C2238303B
:100FF600220D0A00504F5354202F6170692F56312D
:101006002F676174657761792F55706461746553D4
:10101600656E736F72732F303120485454502F31E0
:101026002E310D0A757365726B65793A36666639C7
:1010360035313832323830623436386639393938F3
:101046006664316139323339653961360D0A486F64
:1010560073743A207777772E6C6577656935302E0D
:10106600636F6D0D0A436F6E74656E742D4C656EFD
:101076006774683A000D0A436F6E6E656374696F34
:101086006E3A204B6565702D416C6976650D0A0DCB
:101096000A5B005D007B224E616D65223A22257354
:1010A600222C2256616C7565223A222564227D0027
:1010B6002573002564257300686F6E676A696E671D
:1010C600000D0A0025732C226C6E67223A25732CBC
:1010D600227370656564223A307D7D0048454C5028
:1010E60021210D0A4C4F434154494F4E3A4E3A2561
:1010F600732C453A25732E00003E5149453E0000AB
:10110600427F4000004261514946002141454B3132
:10111600001814127F10002745454539003C4A49FE
:101126004930000171090503003649494936000670
:101136004949291E000060600000000808080808E8
:10114600FFFFFFFFFFFF0484E45C44C42010E82790
:1011560024E4342CE00002017F10103F80601F0958
:10116600093F49897F00100C4444444445C6444421
:10117600444444140C008040201E2040407F4444D8
:10118600444444404000040444C44F4444C424241A
:101196002FB42404040040442424150C04FE040C3B
:1011A6001524244440000000F8494A4C48F8484CAD
:1011B6004A49F800000010101312121212FF121200
:1011C600121213101000404042CC0040404040FF35
:1011D6004040404040000000007F2010000000FF1B
:1011E6000000000000004040407C404040FF444476
:1011F600444444404000809088464040202F1010D0
:10120600080402000000000000000000FF4040400B
:101216004040400000004040404040407F40404049
:10122600404040404000008060F807404848E85F82
:10123600484848404000010000FF0000020B12220F
:10124600D20A060000001060028C00445454547FF9
:1012560054545444400004047E010000FF15151543
:1012660055957F000000100C05555555857F855511
:10127600555505140C000404020A09292A4C48A9EC
:101286001902020404000D0A41542B435343533DF3
:101296002247534D220D0A0041542B43534D503DD6
:1012A60031372C3136372C302C300D0A0041542B77
:1012B600434D47533D223135383635323831393092
:0D12C60033220D0A000000000000000000AF
:101A38004A01DA000102030405060708094201CA3F
:101A48000EA64201CC0EB64201CE0EC54201D00E02
:101A5800F04201D20EFD4201D40F894201D60FB2E5
:101A68004201D80FC24201900FCF4201C40FFA427F
:101A780001C6107B4201C810994101E4004101E907
:101A8800004201E700004201E50000C111C112C196
:101A980010C10CC10FC10BC10EC10D603201920003
:101AA800000000000000000000000000000000002E
:101AB800000000000000000000000000000000001E
:101AC800000000000000000000000000000000000E
:101AD800004101F80042018805DC42018A05DC4228
:0C1AE800018C05DC41018E0041018F00E3
:1027A80075F020EBA42CF582E435F0F583E582245E
:0E27B8004CF582E5833411F583E493FF7D0137
:1027C600E4FEC2A6ED7004C2A58002D2A5EEC394B3
:1027D600085015EF30E704D2A48002C2A4C2A3EFCA
:0A27E60025E0FFD2A30E80E5D2A685
:0127F00022C6
:102A3F00E4FCFBFD7F0C1227C67F801227C6E4FB48
:102A4F007D01E4FF1227C60BEBB454F40CECB40673
:012A5F00ED89
:012A60002253
:10271400C2A77F017E00122A90D2A7C2A67F017EA3
:1027240000122A90D2A67F017E00122A90E4FD7F37
:10273400211227C67FC81227C67F061227C67F1319
:102744001227C67F201227C6122A3FE4FD7F0C12EF
:0B27540027C6C2A67FC87E00022A90A4
:102B2B00AC07ED4440FFE4FD1227C6EC4480FF02E6
:022B3B0027C6AB
:0B2871009001F8E025E0FD7B0C7F05E6
:10287C00E4FCEF75F006A4FF122B2BE4FC75F006BC
:10288C00EBA42CF582E435F0F583E58224FEF58289
:0C289C00E58334101227BF0CECB406E1F9
:0128A800220D
:032974000B7D04D4
:04297700A907AA05FD
:10297B00E4FCE9C454F0FF122B2BE4FC1227A80C47
:10298B00ECB410F8E9C454F0FFEA04FD122B2B7CD5
:09299B00101227A80CECB420F87E
:0129A4002210
:0627F1007B0D7D067F0256
:0627F700AA05A903AE07CC
:1027FD00EA75F006A4FFAD06122B2BE4FBEAFFE908
:10280D00C39FFFE49400FE7C007D0612072DEBC3F1
:10281D009FEE6480F8748098500A7D01E4FF1227C2
:04282D00C60B80D97D
:012831002284
:08162D009001FAEFF0A3EDF0CB
:10163500E4900217F090021AF0A3F09001FCE0FC90
:10164500A3E0FDA3E0FEA3E0FF90021C120913E452
:10165500FFFEFDFC90021CE0F8A3E0F9A3E0FAA36D
:10166500E0FB12014C501E90021CE0FCA3E0FDA320
:10167500E0FEA3E0FF1201C590021C120913E490DD
:10168500021BF0800690021B7401F0900200E0142A
:10169500601414601C1460242403702A900215E45D
:1016A500F0A304F08020900215E4F0A3740AF08002
:1016B50015900215E4F0A37464F0800A9002157485
:1016C50003F0A374E8F0900215E0FCA3E0FDE4123A
:1016D50001DB90021CE0F8A3E0F9A3E0FAA3E0FB2C
:1016E5001200461202148038E47B0AFAF9F89002D7
:1016F50020E0FCA3E0FDA3E0FEA3E0FF1208359087
:101705000217E004F0EF4E601F900220E0FCA3E01A
:10171500FDA3E0FEA3E0FFE47B0AFAF9F812083521
:1017250090022012091380C0900215E0FCA3E0FD91
:10173500E41201DB90021CE0F8A3E0F9A3E0FAA3B0
:10174500E0FB120046120214900220120913E47FF6
:10175500E87E03FDFC900220E0F8A3E0F9A3E0FA9F
:10176500A3E0FBC31208D5500C900200E060069080
:1017750002177404F0900217E0A3F0900217E060DE
:1017850052E47B0AFAF9F8900220E0FCA3E0FDA3FD
:10179500E0FEA3E0FF120835AF03900217E025E055
:1017A50024FFF582E43401F583EAF0A3EFF090021B
:1017B50020E0FCA3E0FDA3E0FEA3E0FFE47B0AFA42
:1017C500F9F8120835900220120913900217E01457
:1017D500F080A8900215E0FCA3E0FDE41201DB9087
:1017E500021CE0F8A3E0F9A3E0FAA3E0FB1200462F
:1017F50012021490022012091390021BE07010903F
:1018050001FBE014FF9001FAE0FD7B0B12287CE45C
:10181500FFFEFDFC900220E0F8A3E0F9A3E0FAA3A7
:10182500E0FBC31208D56079900218E0FF9002171B
:10183500E06F70030218CB90021AE0900219700352
:10184500F080037401F0900217E0FF25E02401F514
:1018550082E43402F583A3E0FB9001FBE02FFF90C7
:101865000219E02FFF9001FAE0FD12287C90021783
:10187500E004F0900200E0FF60AE900218E0C39F24
:10188500FF900217E0FEB5079F90021A7401F090D1
:1018950001FBE02EFF9001FAE0FD7B0A12287C8017
:1018A500879001FAE0FFA3E0FD900217E0FEED2E20
:1018B500FB1227F7E0FF9001FBE02FFF9001FAE014
:0618C500FDE4FB12287C8B
:0118CB0022FA
:101EDD009001FCEBF0A3EAF0A3E9F0A3ECF0A3ED85
:011EED00F004
:101EEE00E4A3F0FF2000539001FFE0FCA3E0FDC34C
:101EFE00940AEC94005004A37401F0C3ED940AEC20
:101F0E009400400EED9464EC94005006900201741F
:101F1E0002F0D3ED9464EC94004006900201740339
:101F2E00F09001FCE0FBA3E0FAA3E0F9122A7B900B
:101F3E000201E02F2416FF7E00229001FCE0F9A39F
:101F4E00E0FAA3E0900205C9F0A3EAF0A3E9F0904D
:101F5E0001FFE0FFA3E0900208CFF0A3EFF07BFFBC
:0A1F6E007A10799B120A8EE4FEFF40
:011F78002246
:101CBB009001FAEEF0A3EFF09001D0E0FEA3E0AAC2
:101CCB0006F990020574FFF0A3EAF0A3E9F07BFF9D
:101CDB007A1079B6120A8E7F327E00122A9090010A
:101CEB00C4E0FEA3E0AA06F990020574FFF0A3EA94
:101CFB00F0A3E9F07BFF7A1079B6120A8E7BFF7A9C
:101D0B001079BE9001FAE0FCA3E0FDC200121EDDCB
:101D1B00EF2402FFE43E900205F0A3EFF09001C622
:101D2B00E0FEA3E0AA06F990020774FFF0A3EAF025
:101D3B00A3E9F07BFF7A1079B9120A8E7BFF7A1038
:101D4B0079BE9001FAE0FCA3E0FDD200121EDD90FB
:101D5B0001C8E0FEA3E0AA06F990020574FFF0A308
:101D6B00EAF0A3E9F07BFF7A1079B6120A8E7F1A9C
:0C1D7B00122B677BFF7A1079C7020A8EDA
:102678002000257B017A0079DA122A7BC006C00780
:102688007B017A0079E6122A7BD0E02FFFD0E03E6A
:10269800CF2424CF3400FE229002057401F0A374E5
:1026A80000F0A374E6F0A37401F0A37400F0A3741F
:0F26B800DAF07BFF7A1079CA120A8EE4FEFF2255
:1023C1009001CAE0FEA3E0AA06F990020574FFF0AD
:1023D100A3EAF0A3E9F07BFF7A1079B6120A8E7FA7
:1023E100327E00122A909001CCE0FEA3E0AA06F909
:1023F10090020574FFF0A3EAF0A3E9F07BFF7A10E5
:1024010079B6120A8E7F327E00122A909001CEE0B8
:10241100FEA3E0AA06F990020574FFF0A3EAF0A377
:10242100E9F07BFF7A1079B6120A8E7F327E0002C4
:022431002A90EF
:102433009001CAE0FEA3E0AA06F990020574FFF03A
:10244300A3EAF0A3E9F07BFF7A1079B6120A8E7F34
:10245300327E00122A909001CCE0FEA3E0AA06F996
:1024630090020574FFF0A3EAF0A3E9F07BFF7A1072
:1024730079B6120A8E7F327E00122A90900190E084
:10248300FEA3E0AA06F990020574FFF0A3EAF0A305
:10249300E9F07BFF7A1079B6120A8E7F327E000252
:0224A3002A907D
:10224D009001D0E0FEA3E0AA06F990020574FFF01C
:10225D00A3EAF0A3E9F07BFF7A1079B6120A8E7F1C
:10226D00327E00122A909001D2E0FEA3E0AA06F978
:10227D0090020574FFF0A3EAF0A3E9F07BFF7A105A
:10228D0079B6120A8EC200122678900205EEF0A3DE
:10229D00EFF09001D4E0FEA3E0AA06F990020774D6
:1022AD00FFF0A3EAF0A3E9F07BFF7A1079B9120AE7
:1022BD008ED2001226787F1A122B677BFF7A107947
:0422CD00C7020A8EAC
:1025CA009001D6E0FEA3E0AA06F990020574FFF096
:1025DA00A3EAF0A3E9F07BFF7A1079B6120A8E7F9C
:1025EA00327E00122A909001D8E0FEA3E0AA06F9F2
:1025FA0090020574FFF0A3EAF0A3E9F07BFF7A10DA
:10260A0079B6120A8E7FE87E03122A901223C17FBE
:09261A00A07E0F122A9002224D4D
:10250F009001D6E0FEA3E0AA06F990020574FFF051
:10251F00A3EAF0A3E9F07BFF7A1079B6120A8E7F57
:10252F00327E00122A909001D8E0FEA3E0AA06F9AD
:10253F0090020574FFF0A3EAF0A3E9F07BFF7A1095
:10254F0079B6120A8E7FE87E03122A901224337F07
:10255F00A07E0F122A909001E5E0FEA3E0FF021C7F
:01256F00BBB0
:101E40009001FAEBF0A3EAF0A3E9F07F5E7E0112C5
:101E50002A9090020574FFF0A37412F0A3748CF022
:101E60007BFF7A1079B6120A8E7F5E7E01122A906D
:101E700090020574FFF0A37412F0A3749EF07BFF30
:101E80007A1079B6120A8E7F5E7E01122A90900235
:101E90000574FFF0A37412F0A374B3F07BFF7A1003
:101EA00079B6120A8E7F5E7E01122A909001FAE0C6
:101EB000F9A3E0FAA3E0900205C9F0A3EAF0A3E9D0
:101EC000F07BFF7A1079B6120A8E7FC27E01122A49
:0D1ED000907F1A122B677F5E7E01022A9020
:102AF300438E4053890F758BC0758DE0C28FD28E84
:032B0300D2AB2230
:102B0600538E7F5389F0758AEB758CCBC28DD28C30
:032B1600D2A9221F
:102A6100122623122570122B06122AF3D2BC122A27
:0A2A71001C53B3DF43B42002271406
:082B7700C2C5122A90D2C5224A
:101BDB009001F4E0FEA3E0FF900188E0FCA3E0FDA0
:101BEB00C39FEE6480F8EC648098501D90018EE0EA
:101BFB00B4020890018CECF0A3EDF0900188EEF0AC
:101C0B00A3EFF090018E7401F09001F4E0FEA3E0DD
:101C1B00FF900188E0FCA3E0FDD39FEE6480F8EC1D
:101C2B006480985003021CBA90018EE06401706AC4
:101C3B0090018AECF0A3EDF0A3E0FEA3E0FFED9F93
:101C4B00FFEC9EFED3EF94D0EE64809487404BD391
:101C5B009001E8E094969001E7E09400403C9001FD
:101C6B00E6E004F070069001E5E004F0E49001E793
:101C7B00F0A3F07F32FE122B771227F19001E5E0F3
:101C8B00FCA3E0FDE41201DB9001FC120913E490CC
:101C9B000200F07D077F0212162D9001F4E0FFA3E6
:0F1CAB00E0900188CFF0A3EFF090018E7402F06B
:011CBA002207
:082013009001FAEEF0A3EFF0DA
:10201B0078FC7C017D017BFF7A1279CB7E007F08F7
:10202B001206AFE4FBEB25E024FEF582E43401F568
:10203B0083E0FEA3E0FFEB25E024FCF582E4340112
:10204B00F583EEF0A3EFF09001FAE0FFA3E090022E
:10205B0002CFF0A3EFF0E4FAEA25E024FCF582E4EA
:10206B003401F583E0FEA3E0FF900205E02FF09032
:10207B000204E03EF0E0FEA3E0FF7C007D041207CB
:10208B003F900204EEF0A3EFF00AEAB404CA0BEBA4
:0B209B00B40392900204E0FEA3E0FFFB
:0120A6002217
:1026C700E4FB7D047F031229777F041229747B04BE
:1026D700E4FDFF1229770BE4FD7F011229777B08C0
:1026E7007D02E4FF1229770B7D027F011229777B98
:1026F700067D04E4FF1229777F01122974122871DD
:0D2707009001F8E025E004FD7F0502287C2C
:1018CC00E49001F9F07FC87E32122A90122A6190BE
:1018DC0000D37402F090000214F01226C77F3B1262
:1018EC0029D312000E9001F4EEF0A3EFF0122013A6
:1018FC009001F6EEF0A3EFF0C394B8EE6480948BF5
:10190C005004D2118002C21120110C9001F8E07029
:10191C0006300D03121BDB300E34E49001F9F0900D
:10192C0001F9E0FFC39406500C7B067D051227F7E6
:10193C00E004F080EA1228719001F8E025E004FD43
:10194C007F0512287C7FF47E01122A90C20E300D86
:10195C002F9001F8E0FF6028B4010CE49001E5F051
:10196C00A3F01227F180179001F8E0B402101225B1
:10197C000F7FA07E0F122A901227141226C7C20DB9
:10198C00300F077F647E00122B77300C4643AF017B
:10199C001224A553AFFE90020574FFF0A37410F04F
:1019AC00A374E2F0A37401F0A37400F0A374E6F046
:1019BC00A37401F0A37400F0A374DAF07B017A0134
:1019CC007992120A887B017A017992121E401225B3
:0D19DC00CAC20C7FC87E00122A900218E9D2
:03000B00021D874C
:0D1D8700C0E0C083C082C0D075D000C0078E
:101D940090018FE004F0E0B43208E4F09001E4E054
:101DA40004F0201111C212C210C20FC20C9001E93A
:101DB400E4F09001E4F030111120120E20100B9089
:101DC40001E4E4F09001E9F0D2123011053012027E
:101DD400C21030121B9001E4E0FFD364809485406C
:101DE4000FEF6480949450089001E9E07002D20FE0
:101DF400301209208006C20FD210C2123012149081
:101E040001E4E0B4140D9001E9E07007201004C26D
:101E14000FD20C208016200E13201210C20DD20EE9
:101E24009001F8E004F0E0B40302E4F0209202D25E
:011E34000DA0
:0B1E3500D007D0D0D082D083D0E032A4
:03001B0002294275
:10294200C0E0C083C082C0D09001E8E004F070060D
:102952009001E7E004F0C39001E8E094309001E7D1
:10296200E094754004E4F0A3F0D0D0D082D083D0BC
:02297200E03251
:0300230002234D68
:10234D00C0E0C0F0C083C082C0D075D008C2AC3030
:10235D00984EC298301349C390006EE0946490007B
:10236D006DE06480948050389000D6E0FEA3E0FFCD
:10237D002405F58274003EF583E599F0EF2401FF05
:10238D00E43EFE7C007D6412073F9000D6ECF0A386
:10239D00EDF090006EE004F0700690006DE004F03A
:1023AD00309904C299C214D2ACD0D0D082D083D08F
:0423BD00F0D0E0324A
:030043000222D1C5
:1022D100C0E0C0F0C083C082C0D075D00853AFFE4B
:1022E100E59A30E04F539AFE301549C39000D9E08A
:1022F10094649000D8E0648094805038900003E0AA
:10230100FEA3E0FF246FF58274003EF583E59BF0A8
:10231100EF2401FFE43EFE7C007D6412073F900044
:1023210003ECF0A3EDF09000D9E004F0700690000A
:10233100D8E004F0E59A30E105539AFDC21643AFA7
:0C23410001D0D0D082D083D0F0D0E032A8
:10004600EC4D6011E8497017ED33EC3304600DE4B4
:10005600FCFFFEFD22E933E8330470F80202801249
:10006600024B58046009E4CC24815006285009024A
:10007600028A284003020287C0E0EB4A7044B98036
:1000860006D0E0FB020276EF4E701CBD8008EBFF47
:10009600EAFEE9FD80EBE98DF0A4FEE5F002012F12
:1000A600E9CDF9EAFEEBFFEF89F0A4FCE5F0CE8995
:1000B600F0A42EFFE435F0CD89F0A42DFEE435F052
:1000C6008067EF4E7005BD80D780C3EF8BF0A4AC80
:1000D600F0EE8BF0A42CFCE435F0F8EF8AF0A42CBB
:1000E600E5F038FCE433CB8DF0A42CFCE5F03BF8CE
:1000F600EE8AF0A42CFCE5F038F8E433CF89F0A4BE
:100106002CFCE5F038CF3400CE89F0A42FFFE5F0C3
:100116003EFEE433C98DF0A42EFEE5F039CD8AF01B
:10012600A42FFFE5F03EFEE43DFD33D0E0FB500793
:100136000BBB000F02028AEC2CFCEF33FFEE33FE02
:06014600ED33FD02026230
:10014C0074F8CC6480CCC86480C8F58204604FC35A
:10015C00EB9FF5F0EA9E42F0E99D42F0E89C45F0F9
:10016C00603C501DE5825FFFE582D313CB5BCBF483
:10017C002B5582FB50280ABA002409B900200880AC
:10018C001DE5825BFBE582D313CF5FCFF4C3132F46
:10019C005582FF50090EBE00050DBD00010CC3EBCE
:1001AC009FF5F0EA9E42F0E99D42F0E89C45F06034
:0901BC0007CC4820E701B3EC2256
:1001C500ED33EC33600A047003BD8004ECB2E7FC48
:0101D5002207
:1001D60075F020800E75F010800575F0087D007EA4
:1001E600007F003392D530D5031208C7EC33401098
:1001F600EF33FFEE33FEED33FDEC33FCD5F0ED22AD
:0E020600E5F0247EA2D513CC92E7CDCEFF22E8
:10021400EDD2E7CD33EC3392D524814006E4FFFEE2
:10022400FDFC22FCE4CFCECDCC24E0501174FF8041
:10023400EDC3CC13CCCD13CDCE13CECF13CF0470DE
:07024400F030D5DE0208C70F
:100A2300E5102405F582E43402F583E005102290F5
:100A33000202300803900205E475F001120959021D
:100A430006D52001E97F2ED2018018EF540F2490A0
:100A5300D43440D4FF30050BEF24BFB41A00500345
:100A63002461FFE511600215110514E514700205F8
:100A73001330080E900202E475F001120959EF02D7
:100A8300071B0200267403D2088003E4C208F51092
:100A9300900202120987E4F511F513F514E51160CC
:100AA300077F20120A6680F57512FFC202C201C2D7
:100AB30003C204C206C207C209120A32FF700D3014
:100AC30008057F00120A77AF14AE1322B4255FC264
:100AD300D5C205120A32FF24D0B40A00501A75F0A9
:100AE3000A781130D50508B6FF0106C6A426F620FC
:100AF300D5047002D20480D924CFB41A00EF500475
:100B0300C2E5D205020D69D20280C6D20180C0D2ED
:100B13000380BCD2D580BAD20680B47F20120A6685
:100B23002003077401B5110040F1120A23FF120AD2
:100B330066020AA0D209D2078095120A23FB120A81
:100B430023FA120A23F94A4B700679677A0E7BFF60
:100B530020032EE511602A7E008E82758300120623
:100B6300EE60060EEE651270F0C2D5EBC0E0EAC08F
:100B7300E0E9C0E0EE120DCAD0E0F9D0E0FAD0E02F
:100B8300FB1206D5FF60AAEBC0E0EAC0E0E9C0E0D3
:100B9300120A66D0E02401F9D0E03400FAD0E0FB79
:100BA300E5120460DCD512D98087D20380A2120D2E
:100BB300AC60F7E512700104120295A912600DE50D
:100BC30012600914F512120E54EF60F3EA30E702D3
:100BD300F404C3995079EAF425120430E701E404DC
:100BE300F512800D120DAC60C1EA05122512120236
:100BF30095EA900231F030E701E4251204D512049E
:100C030020060114120DCAE4C0E0120E5490023102
:100C1300E0601320E70714F0120A4E802204F0D09C
:100C2300E014C0E07F00120A4EE5126007120A4585
:100C33001512800B300603120A45D0E0020AA0D039
:100C4300E00480C4120DAC609EE51204120295907C
:100C53000231EAF0E5122006026001042404120DB9
:010C6300CAC6
:100C640074FF04C0E0120E54120A4EE5122006026C
:100C74006003120A45D0E0B512E87F45120A589085
:100C84000231E07F2B30E7047F2DF404C0E0120A28
:100C940066D0E075F00A84C0F0120A4FD0E0120A60
:100CA4004F020AA0791080027908C207C20980089D
:100CB400D2D5790A8004790AC2D5E512047002F506
:100CC40012E4FAFDFEFF120A23FC7B082002131231
:100CD4000A23FD7B1030010A120A23FE120A23FFA5
:100CE4007B20EC3382D592D55013C3E43001069FA8
:100CF400FFE49EFEE42002039DFDE49CFCE4CBF8AB
:100D0400C202EC700CCFCECDCCE824F8F870F3809E
:100D140017C3EF33FFEE33FEED33FDEC33FCEB335F
:100D2400FB994002FB0FD8E9EB300205F8D0E0C490
:100D340048B202C0E00AEC4D4E4F78207B0070C2EE
:100D4400EAB5120040BCC0E0120DCCD0F0D0E020D7
:100D54000204C4C0E0C4B202C0F0120A4FD0F0D5FD
:100D6400F0EB020AA01209900B3D530CA8580B0E8D
:100D74004C0B0A420CAC4F0CB4440CB4490B234347
:100D84000CBA550BE7460C47450BB1470E87500B81
:100D9400122D0B162E0B392B0B1A230B37200E702A
:100DA4002A0AD24800000B31E512B4FF037512067B
:100DB400120A23FC120A23FD120A23FE120A23FF3D
:100DC40090022A0202D2790AA2D52004143006091C
:100DD400B910020404B9080104A2D5200702500185
:100DE400042003689203B511005034C0E07F203022
:100DF40004197F30A20372077206500F120E23C229
:100E040003C207C206C2097F30800F300603E9C05F
:100E1400E0120A66300603D0E0F9D0E0B511CC3018
:100E240006177F30B9100C120A667F583005077F09
:100E3400788003B90803120A663003057F2D020A7D
:100E4400667F202009F87F2B2007F322920380CFAE
:100E54007F00B40700500B242AF582E43402F583A2
:100E6400E0FF22286E756C6C2900D202120A23302E
:100E740002F8C202781130D50108F6020AD22D50C8
:100E8400434958120A232403B405004001E4900E98
:100E94008293120A57743A120A57D2047511040243
:020EA4000CA898
:1012D300E51030030104F823282400F582E43402E6
:1012E300F583229001FD300303900200E475F001C1
:1012F3001209590206D560EAC5147002151314C504
:1013030014200304FF022B7F9001FD74FFF5F0020C
:101313000970FF022ACCE5116006D511037F002274
:1013230020030F122AB8EF60080514E514700205B4
:1013330013229001FD1209501206D5FF60E89001B7
:10134300FDE475F00112095980DC121323EFC0E0AC
:10135300121315D0E040F3809DD2038002C20390A4
:1013630001FD120987E4F512F510F513F514751153
:1013730000C202C200C201C2041212E6FF7005AF2E
:10138300127E0022B425301212E6FF24D0B40A00E4
:10139300500C75F00AC511A42511F51180E924CF6D
:1013A300B41A00EF5002C2E50215F9D20180D8D277
:1013B3000080D4D20480D0EF121315500812134DBD
:1013C300EF600E80A9EFC0E0121323D0E06F609EA0
:1013D300EF60741212F980A7121323EF6069E5110D
:1013E300700705118003121323EF601420040E12FB
:1013F30012D3E475F001120959EF12071BD511E658
:101403002004040510051280BA121319EFC0E0126C
:101413001315D0E050041212F9E4FF20040E121247
:10142300D3E475F001120959EF12071BEF70DA20AC
:10143300040405100512808BE511600205111213D7
:101443004D121319EF70C6300304E41212F9E512BA
:1014530060030213827EFF7FFF22E5116002051104
:1014630012134DD206D205121319EF30060260D7BC
:10147300C0E01212F9D0E0AC15AD16AE17AF1812DA
:101483001B088C158D168E178F185007121323C245
:101493000580D420041020050205121212D312096C
:0314A300500510E1
:1014A6001208F9021371D0E0809A7900800A791047
:1014B600800679088002790AD205E51160020511D5
:1014C600E9C0E012134DEF60DD121323BF2D04D2E5
:1014D600028003BF2B0912134DEF60CA121319D0F5
:1014E600E0B40A028033B40802802EBF30277002AF
:1014F6007408C205C0E0121319D0E0BF7802800359
:10150600BF58160511D511028007D51104D20580E2
:101516000B741080197002740ABF000AEFF8E4FC1D
:10152600FDFEFF0215ACC0E0EF1212F9D0E0F9E4BF
:10153600FCFDFEFFE9C0E0ECC0E0EDC0E0EEC0E07F
:10154600EFC0E0121319EFF8D0E0FFD0E0FED0E0D4
:10155600FDD0E0FCD0F0E8604DB461004007B47BFC
:10156600005002C2E524D0503DFA24F6500724F973
:101576005034240AFAEAB5F000502BCFA9F0A42F74
:10158600FF92D5E9C5F0CEA4A2D53EFE92D5E9C517
:10159600F0CDA4A2D53DFD92D5E9C5F0CCA4A2D547
:1015A6003CFCC205808EE8C0E020042A2005080520
:1015B600123002031208C71212D312095005102066
:1015C600000B20010DEE8FF012078B80091208F92F
:1015D6008004EF12071BD0E01212F90213712004E7
:1015E600101212D31209500510E5138514F01207D4
:1015F6008B80E8120990143B5314B45813B24C1361
:10160600AE42138A4814B84F14BC4413DB4314B0DB
:101616004914BC55145D46145D45145D4713B62A3E
:0716260015E44E000013BAA9
:10024B00E9D2E7C933E833F892D5EDD2E7CD33ECF9
:07025B0033FC5002B2D52272
:10026200EC30E7100FBF000C0EBE00080DBD0004FD
:100272000BEB6014A2D5EB13FCED92E7FD2274FFA9
:10028200FCFDFEFF22E480F8A2D574FF13FC7D8002
:03029200E480EF16
:10029500F920E73624F950037907E4F42402FBE555
:1002A50082158270021583DBF6E024FB501BE960A2
:1002B50014E4F0E582158270021583E004F0B40AB7
:0D02C50008E4F0D9EE7401F00A22C2D5223F
:1002D200ED33EC3392D5FA602AB4FF33EDC2E77BFB
:1002E200FF60067A0279F7E4227A03790020D504C6
:1002F2007A0279FB224E614E002B494E46002D496F
:100302004E4600E47A08F0A3DAFC7B00740722C0B0
:1003120083C082ECC0E0EDC0E0EEC0E0EFC0E0EAF6
:1003220075F010A4CAABF075F04DA42BFBE435F0C8
:10033200FCEA2410FAEB34C5FBEC34D9FCEDC2E73D
:10034200FF75F056A4F42411C5F0F434C58FF0A45F
:100352002AE5F03BE43CF020E71412059FD0E0FFD1
:10036200D0E0FED0E0FDD0E0FC1204D28014F40410
:1003720012059FD0E0FFD0E0FED0E0FDD0E0FC12FD
:100382000046D082D083E0FAEDD2E7CD33EC3324BD
:1003920082FBE4C3CF33CFCE33CECD33CD33DBF3C9
:1003A2007B0775F00A846004F0A31B0AE5F0F0A352
:1003B2008FF0740AA4FFACF08EF0740AA42CFEAC89
:1003C200F050010C8DF0740AA42CFDE435F0F0A37A
:0503D200DBDE740722D0
:101AF500C207C208C209C20AF9E4F519F51AFCFDC4
:101B0500FEFFE91006EA20090CB42D04D209D32200
:101B1500B42B02D32224D0504794095041240A30D3
:101B25000A15F8851AF0740AA42872E74051C5F021
:101B3500704D85F01AD322D208C0E0E4FBFA792073
:101B45007841120046ECF8EDF9EEFAEFFBD0E0FC37
:101B5500E41201E01203DE3007B41519D322240A7A
:101B6500200A20B4FE0720071AD207D32224EB60EF
:101B75000424E0700EA2099207D20AC209D322C337
:101B8500020280E4300A0BE51A300902F404A207C8
:101B950092093008EA251920D2E5A2E7920A5002F7
:101BA500F404B4260050D8CCC0E0EDC0E0EEC0E0AF
:101BB500EFC0E0EC12059FD0E0FFD0E0FED0E0FDE5
:101BC500D0E0FC200A0512004680031204D2300939
:061BD500031201C5C3224A
:1003D700020280E86480F8E933E83360110460F0D2
:1003E700ED33EC337009E8FCE9FDEAFEEBFF22048C
:1003F70060DED3EB9FEA9EE99DE8C2E78CF0C2F787
:1004070095F0400CE8CCF8E9CDF9EACEFAEBCFFB52
:1004170012024B85D0F05804700320D5B3E804705E
:10042700075002B2D502028A92D5EC0460F7E4CCF9
:10043700C0E0C398F8603B94186008400DD0E0FB1B
:10044700020262E4FBFAC9FC8028E830E406E4C94A
:10045700FBE4CAFCE830E305E4C9CACBFCE854076F
:100467006010F8C3E913F9EA13FAEB13FBEC13FC7A
:10047700D8F130F52FC3E49CFCEF9BFFEE9AFEED1D
:1004870099FDD0E0FBEF4E4D4C701222DB030202C8
:1004970087EC2CFCEF33FFEE33FEED33FDED30E759
:1004A700EB020262EF2BFFEE3AFEED39FDD0E0FBE7
:1004B70050130BBB000302028AED13FDEE13FEEF90
:0804C70013FFEC13FC020262BA
:1004CF0002028AEC5D046005E859047003020280A1
:1004DF0012024B580460F6EC4860F2EC7004FDFE1B
:1004EF00FF22C860DB2481C85009C3986002500600
:1004FF000202879850CAF582E9294B4A7005AB82F0
:10050F0002027675F0007C1A7880C3EF9BEE9AEDAD
:10051F0099400DC3EF9BFFEE9AFEED99FDE842F077
:10052F00DC23ACF0D0E0FFD0E0FED0E0FDAB8220CA
:10053F00E7101BEB60BAEC2CFCEF33FFEE33FEED54
:10054F0033FD020262E803F830E705C0F075F000F2
:10055F00EF2FFFEE33FEED33FD40B830E7C280AA38
:10056F003F8000004120000042C80000447A000094
:10057F00461C400047C35000497424004B18968016
:10058F004CBEBC205A0E1BCA6753C21C749DC5AE0D
:10059F00FB60065407601C23231205CDEB54386013
:1005AF00091205B91205C8120046ECF8EDF9EEFA7A
:1005BF00EFCB22EB1205C880F1543803241C9005B1
:1005CF006FFE93FC0EEE93FD0EEE930ECE93FF2275
:030000000221C119
:0C21C100787FE4F6D8FD75812202220828
:1005DF00E709F608DFFA8046E709F208DFFA803EFE
:1005EF0088828C83E709F0A3DFFA8032E309F608EB
:1005FF00DFFA8078E309F208DFFA807088828C8353
:10060F00E309F0A3DFFA806489828A83E0A3F60806
:10061F00DFFA805889828A83E0A3F208DFFA804CE0
:10062F0080D280FA80C680D4806980F280338010B7
:10063F0080A680EA809A80A880DA80E280CA803320
:10064F0089828A83ECFAE493A3C8C582C8CCC58398
:10065F00CCF0A3C8C582C8CCC583CCDFE9DEE78068
:10066F000D89828A83E493A3F608DFF9ECFAA9F0E7
:10067F00EDFB2289828A83ECFAE0A3C8C582C8CC3D
:10068F00C583CCF0A3C8C582C8CCC583CCDFEADE56
:10069F00E880DB89828A83E493A3F208DFF980CCB8
:1006AF0088F0EF60010E4E60C388F0ED2402B404B1
:1006BF000050B9F582EB2402B4040050AF23234558
:0606CF00822390062F7348
:1006D500BB010689828A83E0225002E722BBFE0223
:0906E500E32289828A83E4932256
:1006EE00BB010CE58229F582E5833AF583E02250C1
:1006FE0006E92582F8E622BBFE06E92582F8E2220B
:0D070E00E58229F582E5833AF583E4932224
:10071B00BB010689828A83F0225002F722BBFE01BD
:02072B00F322B7
:10072D00EF8DF0A4A8F0CF8CF0A428CE8DF0A42EE0
:02073D00FE229A
:10073F00C2D5EC30E709B2D5E4C39DFDE49CFCEED5
:10074F0030E715B2D5E4C39FFFE49EFE1209B6C38E
:10075F00E49DFDE49CFC80031209B630D507C3E489
:06076F009FFFE49EFE2244
:10077500A3F8E0C5F025F0F0E58215827002158337
:06078500E0C838F0E82294
:10078B00BB010A89828A83F0E5F0A3F0225006F7B9
:0F079B0009A7F01922BBFE06F3E5F009F31922B6
:1007AA00E88FF0A4CC8BF0A42CFCE98EF0A42CFCEE
:1007BA008AF0EDA42CFCEA8EF0A4CDA8F08BF0A46C
:1007CA002DCC3825F0FDE98FF0A42CCD35F0FCEBCB
:1007DA008EF0A4FEA9F0EB8FF0A4CFC5F02ECD3990
:0F07EA00FEE43CFCEAA42DCE35F0FDE43CFC22FD
:1007F90075F008758200EF2FFFEE33FECD33CDCCB7
:1008090033CCC58233C5829BED9AEC99E582984039
:100819000CF582EE9BFEED9AFDEC99FC0FD5F0D616
:10082900E4CEFBE4CDFAE4CCF9A88222B800C1B940
:100839000059BA002DEC8BF084CFCECDFCE5F0CB7E
:10084900F97818EF2FFFEE33FEED33FDEC33FCEBB7
:1008590033FB10D703994004EB99FB0FD8E5E4F972
:10086900FA227818EF2FFFEE33FEED33FDEC33FC5F
:10087900C933C910D7059BE99A4007EC9BFCE99A53
:10088900F90FD8E0E4C9FAE4CCFB2275F010EF2F98
:10089900FFEE33FEED33FDCC33CCC833C810D70798
:1008A9009BEC9AE899400AED9BFDEC9AFCE899F8D3
:0E08B9000FD5F0DAE4CDFBE4CCFAE4C8F92266
:0E08C700C3E49FFFE49EFEE49DFDE49CFC2242
:1008D500EB9FF5F0EA9E42F0E99D42F0E89C45F079
:0108E50022F0
:1008E600E8600FECC313FCED13FDEE13FEEF13FFF0
:0308F600D8F12214
:1008F900BB010789828A830209135005E9F8020AB4
:0A0909000BBBFE05E9F8020A1722F5
:0C091300ECF0A3EDF0A3EEF0A3EFF02257
:10091F00A8828583F0D083D082120936120936124D
:10092F000936120936E473E493A3C583C5F0C58372
:10093F00C8C582C8F0A3C583C5F0C583C8C582C822
:01094F002285
:09095000E0FBA3E0FAA3E0F922A8
:10095900F8E0FBA3A3E0F925F0F0E5821582700227
:070969001583E0FA38F022CB
:10097000F8E0FBA3A3E025F0F9F0E5821582700210
:070980001583E038FAF022B4
:09098700EBF0A3EAF0A3E9F02271
:10099000D083D082F8E4937012740193700DA3A3F6
:1009A00093F8740193F5828883E47374029368600A
:0609B000EFA3A3A380DF0A
:102AB80010170B121F79BF0D027F0A020026900221
:042AC8003EE0FF22CB
:082B7F0090023EEFF0D2172294
:102ACC00EFC394094005EF940E4004EFB42003D3F8
:042ADC008001C32290
:0C000E00EE30E707C3E49FFFE49EFE22F3
:102A7B00E4FFFE1206D5600C0FEF70010E09E97032
:052A8B00F20A80EF22B9
:1021CD000218CCE493A3F8E493A34003F68001F244
:1021DD0008DFF48029E493A3F85407240CC8C33313
:1021ED00C4540F4420C8834004F456800146F6DFE2
:1021FD00E4800B01020408102040809019E9E47E70
:10220D00019360BCA3FF543F30E509541FFEE493D6
:10221D00A360010ECF54C025E060A840B8E493A39D
:10222D00FAE493A3F8E493A3C8C582C8CAC583CAC8
:10223D00F0A3C8C582C8CAC583CADFE9DEE780BE80
:011AF40000F1
:1009B600BC000BBE0029EF8DF084FFADF022E4CC25
:1009C600F875F008EF2FFFEE33FEEC33FCEE9DECEE
:1009D600984005FCEE9DFE0FD5F0E9E4CEFD22ED34
:1009E600F8F5F0EE8420D21CFEADF075F008EF2F7E
:1009F600FFED33FD4007985006D5F0F222C398FD6F
:050A06000FD5F0EA220B
:0C0A0B00ECF608EDF608EEF608EFF62217
:0C0A1700ECF208EDF208EEF208EFF2221B
:00000001FF
