:1017720025642025643B003A83126F3B449BA63FBD
:101782000000003C23D70A01000000000000000016
:02179200000055
:101562005000E60000000000000000000000000043
:101572000000005000FA3F80000000000000000060
:0615820000003F800000A4
:1017940012180B7F967E001217F77F967E001217A1
:0B17A400F712174F7F967E000217F728
:1007CD009001701206F5900136E0F8A3E0F9A3E070
:1007DD00FAA3E0FBC000C001C002C003900122E0FB
:1007ED00F8A3E0F9A3E0FAA3E0FB900174E0FCA309
:1007FD00E0FDA3E0FEA3E0FF12002990178512068D
:10080D00E512011ED003D002D001D00012002D90B0
:10081D0001361206F59000FEE0F8A3E0F9A3E0FA28
:10082D00A3E0FB9017791206D5120029900102E082
:10083D00F8A3E0F9A3E0FAA3E0FB1200299000E68B
:10084D001206F5900106E0FCA3E0FDA3E0FEA3E097
:10085D00FF1202C49000EA1206F5900106E0FCA317
:10086D00E0FDA3E0FEA3E0FF1202C49000EE12062D
:10087D00F590177D1206D59000F21206F59000FA4C
:10088D00E0F8A3E0F9A3E0FAA3E0FBC000C001C0CB
:10089D0002C0039017851206D59000E6E0F8A3E09C
:1008AD00F9A3E0FAA3E0FB12011ED003D002D001A0
:1008BD00D00012002D9000FA1206F59000FEE0F81F
:1008CD00A3E0F9A3E0FAA3E0FBC000C001C002C0A1
:1008DD00039017851206D59000EAE0F8A3E0F9A37E
:1008ED00E0FAA3E0FB12011ED003D002D001D0002C
:1008FD0012002D9000FE1206F5900102E0F8A3E023
:10090D00F9A3E0FAA3E0FBC000C001C002C0039050
:10091D0017851206D59000EEE0F8A3E0F9A3E0FAF2
:10092D00A3E0FB12011ED003D002D001D0001200B3
:10093D002D9001021206F5900106E0F8A3E0F9A34F
:10094D00E0FAA3E0FBC000C001C002C00390178510
:10095D001206D59000F2E0F8A3E0F9A3E0FAA3E0C7
:10096D00FB12011ED003D002D001D00012002D9039
:10097D0001061206F5900136E0F8A3E0F9A3E0FABE
:10098D00A3E0FB900170E0FCA3E0FDA3E0FEA3E07B
:10099D00FF1200299000DE1206F5901789E493FCF2
:1009AD001202DF9000FAE0F8A3E0F9A3E0FAA3E069
:1009BD00FB12011E9000E21206F5901789E493FCDC
:1009CD001202DF900102E0F8A3E0F9A3E0FAA3E040
:1009DD00FB12011E9000F61206F5901789E493FCA8
:1009ED001202DF9000E2E0F8A3E0F9A3E0FAA3E041
:1009FD00FB12011E9017811206E512002D90011AAF
:100A0D001206F590011AE0F8A3E0F9A3E0FAA3E0CD
:100A1D00FB9000E2E0FCA3E0FDA3E0FEA3E0FF12EB
:100A2D00022790012E1206F590011AE0F8A3E0F9C5
:100A3D00A3E0FAA3E0FB9000F6E0FCA3E0FDA3E049
:100A4D00FEA3E0FF1202279001321206F59000E29C
:100A5D00E0FCA3E0FDA3E0FEA3E0FF9000D61206AC
:100A6D00F5901789E493FC1202DF9000FEE0F8A3E5
:100A7D00E0F9A3E0FAA3E0FB12011E9000DA1206E2
:100A8D00F59000FAE0FCA3E0FDA3E0FEA3E0FFC0BB
:100A9D0004C005C006C0079000D6E0FCA3E0FDA38E
:100AAD00E0FEA3E0FF90012EE0F8A3E0F9A3E0FA49
:100ABD00A3E0FB12011EA804A905AA06AB07D007E7
:100ACD00D006D005D0041200299000FA1206F59038
:100ADD0000FEE0FCA3E0FDA3E0FEA3E0FFC004C028
:100AED0005C006C0079000DAE0FCA3E0FDA3E0FE20
:100AFD00A3E0FF90012EE0F8A3E0F9A3E0FAA3E054
:100B0D00FB12011EA804A905AA06AB07D007D00643
:100B1D00D005D0041200299000FE1206F5900102B6
:100B2D00E0FCA3E0FDA3E0FEA3E0FFC004C005C010
:100B3D0006C0079000D6E0FCA3E0FDA3E0FEA3E015
:100B4D00FF900132E0F8A3E0F9A3E0FAA3E0FB1275
:100B5D00011EA804A905AA06AB07D007D006D0052B
:100B6D00D0041200299001021206F5900106E0FC56
:100B7D00A3E0FDA3E0FEA3E0FFC004C005C006C0D6
:100B8D00079000DAE0FCA3E0FDA3E0FEA3E0FF90F8
:100B9D000132E0F8A3E0F9A3E0FAA3E0FB12011E95
:100BAD00A804A905AA06AB07D007D006D005D00426
:100BBD001200299001061206F5900136E0F8A3E027
:100BCD00F9A3E0FAA3E0FBC000C001C002C003908E
:100BDD0000DEE0FCA3E0FDA3E0FEA3E0FF90012E0C
:100BED00E0F8A3E0F9A3E0FAA3E0FB12011ED003A5
:100BFD00D002D001D00012002D9001361206F590D2
:100C0D000122E0F8A3E0F9A3E0FAA3E0FBC000C0E5
:100C1D0001C002C0039000DEE0FCA3E0FDA3E0FEF6
:100C2D00A3E0FF900132E0F8A3E0F9A3E0FAA3E01E
:100C3D00FB12011ED003D002D001D00012002D9066
:100C4D0001221206F5900122E0F8A3E0F9A3E0FAE3
:100C5D00A3E0FB900174E0FCA3E0FDA3E0FEA3E0A4
:0A0C6D00FF12002990013A0206F57B
:101232007F3B121706AC06AD07EC1202DA900112E0
:101242001206F57F007E807D897CC4900112E0F851
:10125200A3E0F9A3E0FAA3E0FB12002DE4FBFA7984
:1012620080784612022790010A1206F57F017E005D
:101272007D587C4390010AE0F8A3E0F9A3E0FAA3C9
:10128200E0FB12011E7BC37AF579487840120227EF
:1012920090010A1206F57F45121706AC06AD07EC5F
:1012A2001202DA90013A1206F5E4FFFE7DF07C416B
:1012B20090013AE0F8A3E0F9A3E0FAA3E0FB120000
:1012C2002D1202C47B337A3379837841120227903C
:1012D200013A1206F590013AE0FCA3E0FDA3E0FE1C
:1012E200A3E0FF9001741206F590010AE0FCA3E06E
:0A12F200FDA3E0FEA3E0FF0207CD1C
:08144200900140EEF0A3EFF071
:10144A0078427C017D017BFF7A17798A7E007F0AC8
:10145A001205DFE4FBEB25E02444F582E43401F5D0
:10146A0083E0FEA3E0FFEB25E02442F582E43401A9
:10147A00F583EEF0A3EFF0900140E0FFA3E09001C6
:10148A004ACFF0A3EFF0E4FAEA25E02442F582E439
:10149A003401F583E0FEA3E0FF90014DE02FF090C8
:1014AA00014CE03EF0E0FEA3E0FF7C007D05120661
:1014BA006F90014CEEF0A3EFF00AEAB405CA0BEB09
:0B14CA00B4049290014CE0FEA3E0FF90
:0114D50022F4
:100003009001161207010000000090011E12070163
:0F0013003F8000009001261207014000000022EC
:1010FA009001781206F5900126E0FCA3E0FDA3E03A
:10110A00FEA3E0FF900126E0F8A3E0F9A3E0FAA32A
:10111A00E0FB12011EC004C005C006C00790011EF4
:10112A00E0FCA3E0FDA3E0FEA3E0FFA804A905AA52
:10113A0006FB12011ED003D002D001D00012002DEE
:10114A00A804A905AA06AB07E4FFFE7D807C3F122E
:10115A00022712130090011EE0F8A3E0F9A3E0FAB7
:10116A00A3E0FB12011E90012A1206F5900116E077
:10117A00F8A3E0F9A3E0FAA3E0FBC000C001C002B3
:10118A00C003900178E0FCA3E0FDA3E0FEA3E0FF2A
:10119A0012002990012AE0F8A3E0F9A3E0FAA3E0FB
:1011AA00FB12011ED003D002D001D00012002D90F4
:1011BA0001161206F590012AE0F8A3E0F9A3E0FA75
:1011CA00A3E0FBE4FFFE7D807C3F1200291213009E
:1011DA0090011EE0F8A3E0F9A3E0FAA3E0FB1201F4
:1011EA001E90011E1206F590012AE0F8A3E0F9A369
:1011FA00E0FAA3E0FBE4FFFE7D807C3F12002912A7
:10120A001300900126E0F8A3E0F9A3E0FAA3E0FBBB
:10121A0012011E9001261206F5900116E0FCA3E0C9
:08122A00FDA3E0FEA3E0FF229A
:1015B3007FF47E011217F71217947F3B121706125E
:1015C300187790013EEEF0A3EFF01214427C007DF9
:1015D3000A12065D900145EEF0A3EFF07BFF7A1748
:1015E300797290013EE0FFA3E0900143CFF0A3EFB7
:0D15F300F0120CE27F647E001217F780BD3D
:030023000217CAF7
:0517CA00C0D075D0083D
:1017CF00309806C298AF998F99309904C299C20A7E
:0317DF00D0D03235
:0618A40000007F11DFFED1
:0118AA00221B
:1017E200900186EFF0900186E0FF14F0EF600512A1
:0517F200188380F122C4
:081883007F087EC5DEFEDFFCDC
:01188B00223A
:07188C00EF25E014FFDFFE71
:011893002232
:1017F700AD07AC06ED1DAE0470011C4E6005121856
:031807008380F1EA
:01180A0022BB
:10158800410002014100CF01C10942006900004247
:1015980000D000004200D20000C10B4200D400007D
:0A15A80042000000004200030000B2
:10180B0075985075D7E075D6FE758E14438E01D240
:04181B00ACD2AF227A
:10183200759A1075D7E075D6FE438E1443AF01D268
:02184200AF22D3
:08189400200AFDD20A8F9922FF
:08189C00200CFDD20C8F9B22F1
:1017AF00AE07900002E0B40103121894900002E01B
:0B17BF00B40205AF0612189CAF062212
:1013A8009000CFE064017048900069E07002A3E00B
:1013B80060F6C2AC9000D0E0FEA3E0FF2405F58201
:1013C80074003EF583E0FBEF2401FFE43EFE7C0061
:1013D8007D6412066F9000D0ECF0A3EDF090006AE7
:1013E800E024FFF0900069E034FFF0D2ACAF0322B4
:1013F8009000D4E07002A3E060F653AFFE900000C6
:10140800E0FEA3E0FF246BF58274003EF583E0FB69
:10141800EF2401FFE43EFE7C007D6412066F90001D
:1014280000ECF0A3EDF09000D5E024FFF09000D49C
:09143800E034FFF043AF01AF0303
:011441002288
:10163F00900180EBF0A3EAF0A3E9F0900180E0FBCA
:10164F00A3E0FAA3E0F91206056017900180A3E466
:10165F0075F0011206A5A9F0FA120605FF121894EB
:03166F0080D922FD
:10167200900183EBF0A3EAF0A3E9F0900183E0FB91
:10168200A3E0FAA3E0F91206056017900183A3E430
:1016920075F0011206A5A9F0FA120605FF12189CB0
:0316A20080D922CA
:10181F00D291D2907F0512188CC2917F0512188C2D
:03182F00C2902242
:10186700C291D2907F0512188CD2917F0502188CF5
:10184400A2009291D2907F0512188CC2907F05025B
:02185400188CEE
:10185600D2907F0512188CA291C2907F0512188C27
:01186600225F
:0516D800900144EFF059
:1016DD00E4A3F0900144E025E0F09291D2907F05D3
:1016ED0012188CC2907F0512188C900145E004F001
:0916FD00E0C3940840DD02185618
:10160000E4900145F0D291900144F0900145E0252D
:10161000E0F0D2907F0512188C900145E0FFA29176
:10162000E433FEEF4EF0C2907F0512188C90014417
:0E163000E004F0E0C3940840D2900145E0FFD2
:01163E002289
:10172C00900140EFF0A3EDF012181F7FD01216D8E5
:10173C00900140E0FF1216D8900141E0FF1216D83C
:03174C0002186719
:0516A500900142EFF08E
:1016AA0012181F7FD01216D8900142E0FF1216D8E6
:1016BA0012181F7FD11216D8121600900143EFF0AC
:0D16CA00D200121844121867900143E0FF8F
:0116D70022F0
:10174F00E4FD7F6B12172C7D077F1912172C7D0676
:10175F007F1A12172C7D187F1B12172C7D017F1CEF
:03176F0002172C32
:05170600900140EFF02E
:10170B001216A5900141EFF0900140E004FF121674
:10171B00A5AD07900141E0FE7C00E42DFFEC3EFE01
:01172B00229B
:10002600020348E86480F8E933E83360110460F0BD
:10003600ED33EC337009E8FCE9FDEAFEEBFF220440
:1000460060DED3EB9FEA9EE99DE8C2E78CF0C2F73B
:1000560095F0400CE8CCF8E9CDF9EACEFAEBCFFB07
:1000660012031385D0F05804700320D5B3E804704A
:10007600075002B2D502035292D5EC0460F7E4CCE5
:10008600C0E0C398F8603B94186008400DD0E0FBD0
:1000960002032AE4FBFAC9FC8028E830E406E4C936
:1000A600FBE4CAFCE830E305E4C9CACBFCE8540724
:1000B6006010F8C3E913F9EA13FAEB13FBEC13FC2F
:1000C600D8F130F52FC3E49CFCEF9BFFEE9AFEEDD2
:1000D60099FDD0E0FBEF4E4D4C701222DB0302037C
:1000E6004FEC2CFCEF33FFEE33FEED33FDED30E746
:1000F600EB02032AEF2BFFEE3AFEED39FDD0E0FBD3
:1001060050130BBB0003020352ED13FDEE13FEEF7B
:0801160013FFEC13FC02032AA5
:10011E00EC4D6011E8497017ED33EC3304600DE4DB
:10012E00FCFFFEFD22E933E8330470F802034812A7
:10013E00031358046009E4CC2481500628500902A8
:10014E00035228400302034FC0E0EB4A7044B980CB
:10015E0006D0E0FB02033EEF4E701CBD8008EBFFA5
:10016E00EAFEE9FD80EBE98DF0A4FEE5F002020760
:10017E00E9CDF9EAFEEBFFEF89F0A4FCE5F0CE89BC
:10018E00F0A42EFFE435F0CD89F0A42DFEE435F079
:10019E008067EF4E7005BD80D780C3EF8BF0A4ACA7
:1001AE00F0EE8BF0A42CFCE435F0F8EF8AF0A42CE2
:1001BE00E5F038FCE433CB8DF0A42CFCE5F03BF8F5
:1001CE00EE8AF0A42CFCE5F038F8E433CF89F0A4E5
:1001DE002CFCE5F038CF3400CE89F0A42FFFE5F0EB
:1001EE003EFEE433C98DF0A42EFEE5F039CD8AF043
:1001FE00A42FFFE5F03EFEE43DFD33D0E0FB5007BB
:10020E000BBB000F020352EC2CFCEF33FFEE33FE60
:06021E00ED33FD02032A8E
:10022400020352EC5D046005E859047003020348BC
:10023400120313580460F6EC4860F2EC7004FDFEFF
:10024400FF22C860DB2481C85009C39860025006AD
:1002540002034F9850CAF582E9294B4A7005AB82D4
:1002640002033E75F0007C1A7880C3EF9BEE9AED92
:1002740099400DC3EF9BFFEE9AFEED99FDE842F025
:10028400DC23ACF0D0E0FFD0E0FED0E0FDAB822078
:10029400E7101BEB60BAEC2CFCEF33FFEE33FEED02
:1002A40033FD02032AE803F830E705C0F075F000D7
:1002B400EF2FFFEE33FEED33FD40B830E7C280AAE6
:1002C400ED33EC33600A047003BD8004ECB2E7FC48
:0102D4002207
:1002D50075F020800E75F010800575F0087D007EA4
:1002E500007F003392D530D5031206BBEC334010A6
:1002F500EF33FFEE33FEED33FDEC33FCD5F0ED22AD
:0E030500E5F0247EA2D513CC92E7CDCEFF22E8
:100C7700E5102443F582E43401F583E00510229062
:100C87000140300703900143E475F0011207320277
:100C970006052000E97F2ED2008018EF540F24901C
:100CA700D43440D4FF30040BEF24BFB41A005003F0
:100CB7002461FFE511600215110514E514700205A2
:100CC7001330070E900140E475F001120732EF026E
:100CD700064B0217AF7403D2078003E4C207F5106F
:100CE700900140120749E4F511F513F514E5116079
:100CF700077F20120CBA80F57512FFC201C200C22D
:100D070002C203C205C206C208120C86FF700D306C
:100D170007057F00120CCBAF14AE1322B4255FC2B8
:100D2700D5C204120C86FF24D0B40A00501A75F0FD
:100D37000A781130D50508B6FF0106C6A426F620A5
:100D4700D5047002D20380D924CFB41A00EF50041F
:100D5700C2E5D204020FBDD20180C6D20080C0D244
:100D67000280BCD2D580BAD20580B47F20120CBADB
:100D77002002077401B5110040F1120C77FF120C25
:100D8700BA020CF4D208D2068095120C77FB120C2B
:100D970077FA120C77F94A4B700679BB7A107BFF0A
:100DA70020022EE511602A7E008E827583001206CE
:100DB7001E60060EEE651270F0C2D5EBC0E0EAC009
:100DC700E0E9C0E0EE12101ED0E0F9D0E0FAD0E082
:100DD700FB120605FF60AAEBC0E0EAC0E0E9C0E04D
:100DE700120CBAD0E02401F9D0E03400FAD0E0FBCD
:100DF700E5120460DCD512D98087D20280A21210D6
:100E07000060F7E51270010412035DA912600DE599
:100E170012600914F5121210A8EF60F3EA30E70226
:100E2700F404C3995079EAF425120430E701E40485
:100E3700F512800D12100060C1EA05122512120387
:100E47005DEA90016FF030E701E4251204D5120442
:100E57002005011412101EE4C0E01210A890016FC3
:100E6700E0601320E70714F0120CA2802204F0D0F0
:100E7700E014C0E07F00120CA2E5126007120C9983
:100E87001512800B300503120C99D0E0020CF4D038
:100E9700E00480C4121000609EE5120412035D9006
:100EA700016FEAF0E5122005026001042404121024
:010EB7001E1C
:100EB80074FF04C0E01210A8120CA2E5122005026B
:100EC8006003120C99D0E0B512E87F45120CAC9083
:100ED800016FE07F2B30E7047F2DF404C0E0120C93
:100EE800BAD0E075F00A84C0F0120CA3D0E0120C5E
:100EF800A3020CF4791080027908C206C20880089F
:100F0800D2D5790A8004790AC2D5E512047002F5AF
:100F180012E4FAFDFEFF120C77FC7B082001131285
:100F28000C77FD7B1030000A120C77FE120C77FF4D
:100F38007B20EC3382D592D55013C3E43000069F52
:100F4800FFE49EFEE42001039DFDE49CFCE4CBF855
:100F5800C201EC700CCFCECDCCE824F8F870F38049
:100F680017C3EF33FFEE33FEED33FDEC33FCEB3309
:100F7800FB994002FB0FD8E9EB300105F8D0E0C43B
:100F880048B201C0E00AEC4D4E4F78207B0070C299
:100F9800EAB5120040BCC0E0121020D0F0D0E0202A
:100FA8000104C4C0E0C4B201C0F0120CA3D0F0D553
:100FB800F0EB020CF41207520D91530EFC580D621F
:100FC8004C0D5E420F004F0F08440F08490D774340
:100FD8000F0E550E3B460E9B450E054710DB500D78
:100FE800662D0D6A2E0D8D2B0D6E230D8B2010C4D2
:100FF8002A0D264800000D85E512B4FF0375120678
:10100800120C77FC120C77FD120C77FE120C77FF8E
:1010180090016802039A790AA2D5200314300509C1
:10102800B910020404B9080104A2D520060250012F
:10103800042002689202B511005034C0E07F2030CD
:1010480003197F30A20272067205500F121077C280
:1010580002C206C205C2087F30800F300503E9C00E
:10106800E0120CBA300503D0E0F9D0E0B511CC306D
:1010780005177F30B9100C120CBA7F583004077F5F
:10108800788003B90803120CBA3002057F2D020CD0
:10109800BA7F202008F87F2B2006F322920280CF07
:1010A8007F00B40700500B2468F582E43401F5830F
:1010B800E0FF22286E756C6C2900D201120C773083
:1010C80001F8C201781130D50108F6020D262D501D
:1010D800434958120C772403B405004001E49010EA
:1010E800D693120CAB743A120CABD20375110402EE
:0210F8000EFCEC
:1012FC0002034822EDA2E7D2E7F9EC3340F260F3A7
:10130C00B4FF08ED547F70E8020352F82481C2E068
:10131C00C0E0F40428FAC313FCED92E7FD90017CC5
:10132C001206F5EEA2E7E9BA7F02C313340094006B
:10133C00FA75F091A4E5F013F494FE8AF0A433E569
:10134C00F033248CD313FDE492E7FE7F007C3F75D1
:10135C008302ECC0E0F8EDC0E0F9EEC0E0FAEFC0BB
:10136C00E0FB8583F090017C1206C985F0831202A4
:10137C0027D0E0FBD0E0FAD0E0F9D0E0F812002D55
:10138C00ED6480FD30E7011CD583C7ED33CC33F819
:0C139C00D0E0A2E71328C313CC13FD22FD
:10031300E9D2E7C933E833F892D5EDD2E7CD33EC30
:0703230033FC5002B2D522A9
:10032A00EC30E7100FBF000C0EBE00080DBD000434
:10033A000BEB6014A2D5EB13FCED92E7FD2274FFE0
:10034A00FCFDFEFF22E480F8A2D574FF13FC7D8039
:03035A00E480EF4D
:10035D00F920E73624F950037907E4F42402FBE58C
:10036D0082158270021583DBF6E024FB501BE960D9
:10037D0014E4F0E582158270021583E004F0B40AEE
:0D038D0008E4F0D9EE7401F00A22C2D52276
:10039A00ED33EC3392D5FA602AB4FF33EDC2E77B32
:1003AA00FF60067A0379BFE4227A0379C820D5046C
:1003BA007A0379C3224E614E002B494E46002D49DD
:1003CA004E4600E47A08F0A3DAFC7B00740722C0E8
:1003DA0083C082ECC0E0EDC0E0EEC0E0EFC0E0EA2E
:1003EA0075F010A4CAABF075F04DA42BFBE435F000
:1003FA00FCEA2410FAEB34C5FBEC34D9FCEDC2E775
:10040A00FF75F056A4F42411C5F0F434C58FF0A496
:10041A002AE5F03BE43CF020E7141204CFD0E0FFD9
:10042A00D0E0FED0E0FDD0E0FC1202278014F404F4
:10043A001204CFD0E0FFD0E0FED0E0FDD0E0FC1205
:10044A00011ED082D083E0FAEDD2E7CD33EC33241B
:10045A0082FBE4C3CF33CFCE33CECD33CD33DBF300
:10046A007B0775F00A846004F0A31B0AE5F0F0A389
:10047A008FF0740AA4FFACF08EF0740AA42CFEACC0
:10048A00F050010C8DF0740AA42CFDE435F0F0A3B1
:05049A00DBDE74072207
:10049F003F8000004120000042C80000447A000065
:1004AF00461C400047C35000497424004B189680E7
:1004BF004CBEBC205A0E1BCA6753C21C749DC5AEDE
:1004CF00FB60065407601C23231204FDEB543860B5
:1004DF00091204E91204F812011EECF8EDF9EEFA14
:1004EF00EFCB22EB1204F880F1543803241C900454
:1004FF009FFE93FC0EEE93FD0EEE930ECE93FF2216
:030000000214D611
:0C14D600787FE4F6D8FD75812102151D19
:10050F00E709F608DFFA8046E709F208DFFA803ECE
:10051F0088828C83E709F0A3DFFA8032E309F608BB
:10052F00DFFA8078E309F208DFFA807088828C8323
:10053F00E309F0A3DFFA806489828A83E0A3F608D7
:10054F00DFFA805889828A83E0A3F208DFFA804CB1
:10055F0080D280FA80C680D4806980F28033801088
:10056F0080A680EA809A80A880DA80E280CA8033F1
:10057F0089828A83ECFAE493A3C8C582C8CCC58369
:10058F00CCF0A3C8C582C8CCC583CCDFE9DEE78039
:10059F000D89828A83E493A3F608DFF9ECFAA9F0B8
:1005AF00EDFB2289828A83ECFAE0A3C8C582C8CC0E
:1005BF00C583CCF0A3C8C582C8CCC583CCDFEADE27
:1005CF00E880DB89828A83E493A3F208DFF980CC89
:1005DF0088F0EF60010E4E60C388F0ED2402B40482
:1005EF000050B9F582EB2402B4040050AF23234529
:0605FF00822390055F73EA
:10060500BB010689828A83E0225002E722BBFE02F3
:09061500E32289828A83E4932226
:10061E00BB010CE58229F582E5833AF583E0225091
:10062E0006E92582F8E622BBFE06E92582F8E222DB
:0D063E00E58229F582E5833AF583E49322F5
:10064B00BB010689828A83F0225002F722BBFE018E
:02065B00F32288
:10065D00EF8DF0A4A8F0CF8CF0A428CE8DF0A42EB1
:02066D00FE226B
:10066F00C2D5EC30E709B2D5E4C39DFDE49CFCEEA6
:10067F0030E715B2D5E4C39FFFE49EFE120778C39F
:10068F00E49DFDE49CFC800312077830D507C3E49A
:06069F009FFFE49EFE2215
:1006A500A3F8E0C5F025F0F0E58215827002158308
:0606B500E0C838F0E82265
:0E06BB00C3E49FFFE49EFEE49DFDE49CFC2250
:0C06C900E0FCA3E0FDA3E0FEA3E0FF22A4
:1006D500E493FC740193FD740293FE740393FF226B
:1006E500E493F8740193F9740293FA740393FB226B
:0C06F500ECF0A3EDF0A3EEF0A3EFF02278
:10070100A8828583F0D083D08212071812071812AD
:100711000718120718E473E493A3C583C5F0C583D2
:10072100C8C582C8F0A3C583C5F0C583C8C582C842
:0107310022A5
:10073200F8E0FBA3A3E0F925F0F0E5821582700250
:070742001583E0FA38F022F4
:09074900EBF0A3EAF0A3E9F022B1
:10075200D083D082F8E4937012740193700DA3A336
:1007620093F8740193F5828883E47374029368604A
:06077200EFA3A3A380DF4A
:0C187700EE30E707C3E49FFFE49EFE2272
:1014E2000215B3E493A3F8E493A34003F68001F258
:1014F20008DFF48029E493A3F85407240CC8C3330B
:10150200C4540F4420C8834004F456800146F6DFD9
:10151200E4800B0102040810204080901562E47EF2
:10152200019360BCA3FF543F30E509541FFEE493CE
:10153200A360010ECF54C025E060A840B8E493A395
:10154200FAE493A3F8E493A3C8C582C8CAC583CAC0
:10155200F0A3C8C582C8CAC583CADFE9DEE780BE78
:0115B2000038
:10077800BC000BBE0029EF8DF084FFADF022E4CC65
:10078800F875F008EF2FFFEE33FEEC33FCEE9DEC2E
:10079800984005FCEE9DFE0FD5F0E9E4CEFD22ED74
:1007A800F8F5F0EE8420D21CFEADF075F008EF2FBE
:1007B800FFED33FD4007985006D5F0F222C398FDAF
:0507C8000FD5F0EA224C
:00000001FF
